:0400000008EF66F0AF
:10C9CC001200C5861200C596120071EC67F0C58086
:10C9DC00120071EC67F0C584120071EC67F0C5822F
:10C9EC00120001C0FAF002C0FBF0120001C0FEF010
:10C9FC0002C0FFF0120001C0FCF002C0FDF01200FA
:10CA0C00016E71EC67F001C0C9FF12001C0014012B
:10CA1C001402190F1480FF0F700ED36E040ED26E19
:10CA2C00000E9B6E1200E9EC65F012EC65F027EC41
:10CA3C0066F01200C7B025EF65F028EF65F0010E27
:10CA4C0029EF65F0000E1200016E01B002D0C59AFC
:10CA5C0001D0C58A71EC67F0C5881200000EC76E54
:10CA6C00080EC66E000EC56E270EC86EC68A120062
:10CA7C00016E01C0ADFFACA246EF65F048EF65F06A
:10CA8C0041EF65F0120071EC67F0C5BC50EF65F03A
:10CA9C0053EF65F0010E54EF65F0000E1200190E05
:10CAAC00026E0F0E036E400E9CEC67F0140E026EBD
:10CABC00020E036E400E9CEC67F012000150030254
:10CACC00F3CF05F0F4CF06F001500402F350062624
:10CADC0002500302F350062605C001F006C002F016
:10CAEC001200000E016E9EA87EEF65F080EF65F0DF
:10CAFC0089EF65F0ACAA85EF65F087EF65F089EFFB
:10CB0C0065F0010E016E01501200130E056EFF0E42
:10CB1C00066E7DEC68F0140E026E800E036E400EF5
:10CB2C009CEC67F0640E056EFF0E066E7DEC68F0F3
:10CB3C001200D00E0124036EFF0E0220046E04506E
:10CB4C000AE10A0E035CD8A0AEEF65F0B1EF65F018
:10CB5C00010EB2EF65F0000E016E026A1200026E59
:10CB6C0071EC67F0E7EC64F020EC65F00009D8B4E8
:10CB7C00C2EF65F0C4EF65F0BAEF65F0C9CF03F012
:10CB8C00E9EC64F002502AEC65F0035012000150FD
:10CB9C00021003100410D8B4D6EF65F0D8EF65F08E
:10CBAC00E0EF65F0000E011A000E021A000E031AD7
:10CBBC00800E041A01C001F002C002F003C003F0A1
:10CBCC0004C004F01200000E8D6E000E8C6E000E70
:10CBDC00896E000E8A6E000E8B6E060E966E926833
:10CBEC009368BF0E946E95680F013B69240E3A6FE3
:10CBFC003F0E396F060E3C6F2F0E386F000E616EB4
:10CC0C00F18E1200180EF66ECA0EF76E000EF86E4C
:10CC1C0000EEEEF010EE0CF00900F5CFEEFFE55053
:10CC2C00E150FAE101EE00F0640EEE6AE806FDE177
:10CC3C0000EEAFF03F0EEE6AE806FDE10001C5EF35
:10CC4C006EF0080EB86E900EAB6E240EAC6ECF0E5E
:10CC5C00AF6E000EB06E000E016E000E026EFCEC9C
:10CC6C0064F0000E016E000E026E01EC65F0000E19
:10CC7C00016E000E026EF7EC64F0000E0001CA6F3C
:10CC8C00120003C005F004C006F001C007F002C09A
:10CC9C0008F005C0F6FF06C0F7FF054A062AF86A39
:10CCAC0007C0D9FF08C0DAFF074A082A0800F5CFE9
:10CCBC00DFFFDF50D8A465EF66F067EF66F04FEF4B
:10CCCC0066F01200000E106E000E0F6E79EF66F01B
:10CCDC000EC001F0026A0CC003F00DC004F018EC99
:10CCEC006AF00F4A102A0F500A24D96E10500B20EC
:10CCFC00DA6EDF500E6E0E50D8A487EF66F089EF17
:10CD0C0066F06EEF66F01200010E056E200E011833
:10CD1C000210D8B494EF66F096EF66F0A9EF66F0C7
:10CD2C00F70E0124036EFF0E0220046E045009E17D
:10CD3C00050E035CD8A0A5EF66F0A7EF66F0A9EF8F
:10CD4C0066F0000E056E05C001F0026A1200000EBE
:10CD5C001E1A000E1F1A000E201A800E211A1AC05D
:10CD6C0001F01BC002F01CC003F01DC004F01EC07B
:10CD7C0005F01FC006F020C007F021C008F0B6EC8B
:10CD8C0076F001C01AF002C01BF003C01CF004C006
:10CD9C001DF0120001C003F002C004F0D8EF66F0E1
:10CDAC00014A022A01C0F6FF02C0F7FF000EF86E1E
:10CDBC000F0EF76403D00800F55005D0F6CFE1FF55
:10CDCC00F7CFE2FFE7500009D8A4EFEF66F0F1EFE0
:10CDDC0066F0D6EF66F00350015C016E0450025809
:10CDEC00026E120003C009F004C00AF001C007F083
:10CDFC0002C008F012EF67F009C0D9FF0AC0DAFFD1
:10CE0C00DF500B6E094A0A2A07C0D9FF08C0DAFFA7
:10CE1C000BC0DFFF074A082A0506D8A0060605281E
:10CE2C0006E10628D8A41DEF67F01FEF67F002EFAC
:10CE3C0067F0120058C05CF059C05DF034EF67F039
:10CE4C0056C04CF057C04DF05C0E4E6E000E4F6E3F
:10CE5C005AC050F05BC051F097EC72F05CC0F6FF1A
:10CE6C005DC0F7FFF86A0800F5500009D8A441EF3F
:10CE7C0067F043EF67F026EF67F0000E576E000E79
:10CE8C00566E12009E0E0001A26F000EA36F9AC088
:10CE9C00A4F09BC0A5F0000EA86F000EA76F000EAB
:10CEAC00AE6F000EAD6FA40E566E000E576E9CC08A
:10CEBC0058F09DC059F0A20E5A6E000E5B6E20EC1D
:10CECC0067F00001A7519A25D96EA8519B21DA6E03
:10CEDC00000EDF6E1200C7B476EF67F078EF67F0E4
:10CEEC0071EF67F0C5B07DEF67F07FEF67F071EF22
:10CEFC0067F0C5B284EF67F086EF67F071EF67F00B
:10CF0C00C5B48BEF67F08DEF67F071EF67F0C5B6C6
:10CF1C0092EF67F094EF67F071EF67F0C5B899EF97
:10CF2C0067F09BEF67F071EF67F01200046EEBECAB
:10CF3C0064F0045006EC65F049EC65F00009D8B4D7
:10CF4C00AAEF67F0ACEF67F0AEEF67F09DEF67F01C
:10CF5C00025006EC65F049EC65F00009D8B4B9EF65
:10CF6C0067F0BBEF67F0BDEF67F09DEF67F0035024
:10CF7C0006EC65F049EC65F00009D8B4C8EF67F031
:10CF8C00CAEF67F0CCEF67F09DEF67F0EFEC64F061
:10CF9C00120004BEDEEF67F004500310021006E12D
:10CFAC000104D8B0DCEF67F0DEEF67F0F9EF67F063
:10CFBC0001C005F002C006F003C007F004C008F081
:10CFCC00051E061E071E081E052A000E0622072235
:10CFDC00082205C001F006C002F007C003F008C02B
:10CFEC0004F001EF68F001C001F002C002F003C0D0
:10CFFC0003F004C004F0120016BE07EF68F009EF4E
:10D00C0068F00FEF68F015C01AF016C01BF013EFA4
:10D01C0068F0000E1B6E000E1A6E000E196E000EDC
:10D02C00186E25EF68F0000E026E200E016E11C016
:10D03C0003F012C004F018EC6AF0184A192A1A50BE
:10D04C00185C1950800A176E1B50800A1758D8A00C
:10D05C0032EF68F034EF68F019EF68F013C00AF0A3
:10D06C0014C00BF011C00CF012C00DF068EC66F09F
:10D07C001200076EEBEC64F0075006EC65F049EC1F
:10D08C0065F00009D8B44DEF68F04FEF68F051EF40
:10D09C0068F040EF68F0045006EC65F049EC65F080
:10D0AC000009D8B45CEF68F05EEF68F060EF68F0F0
:10D0BC0040EF68F0F3EC64F00750010906EC65F002
:10D0CC0049EC65F00009D8B46EEF68F070EF68F0C9
:10D0DC0072EF68F040EF68F0010EB5EC65F005C03A
:10D0EC00D9FF06C0DAFFDF6EEFEC64F012008D8022
:10D0FC00000E0A6E000E096EA9EF68F077EC65F071
:10D10C000009D8B48CEF68F08EEF68F084EF68F00B
:10D11C0009500524076E0A500620086E07C0F6FF5A
:10D12C0008C0F7FF000EF86E0F0EF76403D008006E
:10D13C00F55005D0F6CFE1FFF7CFE2FFE7503EEC1C
:10D14C0065F0094A0A2A05C001F006C002F0D0ECCD
:10D15C0066F00150095C02500A58D8A0B8EF68F08C
:10D16C00BAEF68F084EF68F08D901200540E056EE3
:10D17C00FF0E066E7DEC68F0140E026E020E036E4E
:10D18C00400E9CEC67F01C0E026E000E036E400EFF
:10D19C009CEC67F0820E056EFF0E066E7DEC68F05F
:10D1AC007D0E056EFE0E066E7DEC68F0100E046EA4
:10D1BC00120E056E000E066E400E3FEC68F012B0BB
:10D1CC00EAEF68F0ECEF68F0D6EF68F0B50E056E9C
:10D1DC00FE0E066E7DEC68F0140E026E000E036EF1
:10D1EC00400E9CEC67F0200E0B6EF80E0C6E000ED1
:10D1FC000D6E400E7DEC6AF0730E056EFF0E066E22
:10D20C007DEC68F01200000E0114096E000E021481
:10D21C000A6E800E03140B6E7F0E04140C6E0950F4
:10D22C000A100B100C10D8A41EEF69F020EF69F057
:10D23C0028EF69F0000E016E000E026E000E036EF8
:10D24C00000E046E000E0514096E000E06140A6E14
:10D25C00800E07140B6E7F0E08140C6E09500A100A
:10D26C000B100C10D8A43DEF69F03FEF69F047EFBD
:10D27C0069F0000E056E000E066E000E076E000EB5
:10D28C00086E055001180FE1065002180CE107500A
:10D29C00031809E108500418D8B457EF69F059EF96
:10D2AC0069F05CEF69F0D8905DEF69F0D8801200FE
:10D2BC00000E066E02BE67EF69F065EF69F06DEF68
:10D2CC0069F0016C021ED8B0022A010E066E04BE73
:10D2DC0074EF69F072EF69F078EF69F0036C041E7B
:10D2EC00D8B0042A03500410D8B47FEF69F081EF52
:10D2FC0069F0A5EF69F0010E056E89EF69F0D89021
:10D30C0003360436052A04AE8EEF69F090EF69F00F
:10D31C0085EF69F00350015C04500258D8A099EFD6
:10D32C0069F09BEF69F09FEF69F00350015E0450C8
:10D33C00025AD89004320332052E90EF69F0065051
:10D34C00D8B4ABEF69F0ADEF69F0B1EF69F0016CF7
:10D35C00021ED8B0022A01C001F002C002F0120075
:10D36C00000E066E04BEBFEF69F0BDEF69F0C5EFAD
:10D37C0069F0036C041ED8B0042A010E066E02BEBE
:10D38C00CCEF69F0CAEF69F0D2EF69F0016C021EC4
:10D39C00D8B0022A010E061A000E086E000E076E97
:10D3AC0003500410D8B4DDEF69F0DFEF69F007EF3C
:10D3BC006AF0010E056EE7EF69F0D890033604367B
:10D3CC00052A04AEECEF69F0EEEF69F0E3EF69F0DB
:10D3DC00D890073608360350015C04500258D8A088
:10D3EC00FAEF69F0FCEF69F001EF6AF00350015EAF
:10D3FC000450025A0780D89004320332052EEEEF07
:10D40C0069F00650D8B40DEF6AF00FEF6AF013EF25
:10D41C006AF0076C081ED8B0082A07C001F008C0D3
:10D42C0002F0120003500410D8B41FEF6AF021EF81
:10D43C006AF02AEF6AF003500410D8A428EF6AF0BF
:10D44C002AEF6AF02FEF6AF00150E6EC64F07CEF03
:10D45C006AF020EE09F00350D9260450DA22DE508F
:10D46C00DE10D8B43CEF6AF03EEF6AF059EF6AF088
:10D47C0020EE09F00350D9260450DA2210EE03F006
:10D48C000350E1260450E222DE50E65CE650800AAE
:10D49C00096EDE50800A0958D8B057EF6AF059EF80
:10D4AC006AF07CEF6AF020EE03F00350D9260450AA
:10D4BC00DA22DECF05F0DDCF06F003C0D9FF04C0C1
:10D4CC00DAFFDECF07F0DDCF08F005500724D96E68
:10D4DC0006500820DA6E01C0DFFF20EE03F0035087
:10D4EC00D9260450DA22DE2A000EDD221200116E3B
:10D4FC00910E056EFF0E066E7DEC68F0EBEC64F0A1
:10D50C00115006EC65F049EC65F00009D8B491EFC8
:10D51C006AF093EF6AF095EF6AF07EEF6AF0240EF2
:10D52C00056EFF0E066E7DEC68F00B5006EC65F098
:10D53C0049EC65F00009D8B4A6EF6AF0A8EF6AF0E0
:10D54C00AAEF6AF07EEF6AF0340E056EFF0E066EDF
:10D55C007DEC68F0F3EC64F01150010906EC65F019
:10D56C0049EC65F00009D8B4BEEF6AF0C0EF6AF080
:10D57C00C2EF6AF07EEF6AF0440E056EFF0E066E87
:10D58C007DEC68F0000EB5EC65F00E6E0E50106E72
:10D59C000F6A0CC0D9FF0DC0DAFF0FC0DEFF10C040
:10D5AC00DDFF010EB5EC65F00E6E0E500CC0D9FF10
:10D5BC000DC0DAFFDE26000EDD22AD0E056EFF0E6D
:10D5CC00066E7DEC68F0EFEC64F0BA0E056EFF0EA3
:10D5DC00066E7DEC68F01200B9C00BF0BAC00CF00E
:10D5EC00BBC00DF0BCC00EF001C00BF002C00CF0C3
:10D5FC0003C00DF004C00EF00BC005F00CC006F01B
:10D60C000DC007F00EC008F0180E12EF6BF0D8909A
:10D61C000832073206320532E82E0DEF6BF005505A
:10D62C00096E0A6A09500A10D8A41FEF6BF021EF9B
:10D63C006BF041EF6BF0D8900B34056E0C34066E2A
:10D64C000D34076E0E34086E0550061007100810C6
:10D65C00D8A433EF6BF035EF6BF03BEF6BF0000EB3
:10D66C00026E020E016E70EF6BF0000E026E030E76
:10D67C00016E70EF6BF009280A10D8A448EF6BF01C
:10D68C004AEF6BF06CEF6BF00BC005F00CC006F0C2
:10D69C000DC007F00EC008F0090ED89005360636FE
:10D6AC0007360836E82E53EF6BF0055006100710BE
:10D6BC000810D8B464EF6BF067EF6BF0010E68EFF5
:10D6CC006BF0000E016E026A70EF6BF0000E026ED2
:10D6DC00040E016E1200000E1A14226E000E1B14A2
:10D6EC00236E800E1C14246E7F0E1D14256E22508A
:10D6FC00231024102510D8A486EF6BF088EF6BF064
:10D70C0090EF6BF0000E1A6E000E1B6E000E1C6E6E
:10D71C00000E1D6E000E1E14226E000E1F14236EC2
:10D72C00800E2014246E7F0E2114256E225023109F
:10D73C0024102510D8A4A5EF6BF0A7EF6BF0AFEF7A
:10D74C006BF0000E1E6E000E1F6E000E206E000E93
:10D75C00216E1DAEB4EF6BF0B6EF6BF0BFEF6BF05C
:10D76C001A6C1B1ED8B01B2A1C1ED8B01C2A800E8B
:10D77C001D5621AEC4EF6BF0C6EF6BF0CFEF6BF024
:10D78C001E6C1F1ED8B01F2A201ED8B0202A800E57
:10D79C002156000E1A1A000E1B1A000E1C1A800EAF
:10D7AC001D1A000E1E1A000E1F1A000E201A800ED3
:10D7BC00211A1E501A5C1F501B5820501C58215007
:10D7CC001D58D8B0ECEF6BF0EEEF6BF0F1EF6BF0A7
:10D7DC00D890F2EF6BF0D8801200033404340A6E48
:10D7EC000A50D8A4FCEF6BF0FEEF6BF008EF6CF076
:10D7FC00000E016E000E026E000E036E000E046E23
:10D80C0075EF6CF001C005F002C006F003C007F024
:10D81C0004C008F0200E18EF6CF0D89008320732D4
:10D82C0006320532E82E13EF6CF00550096E038EAC
:10D83C00FF0E0116FF0E0216FF0E0316000E041645
:10D84C00960E0A5E0ABE2FEF6CF02DEF6CF045EFD2
:10D85C006CF00A50800A970FD8B037EF6CF039EFA4
:10D86C006CF03BEF6CF0FEEF6BF0D89004320332AF
:10D87C00023201320A3E3BEF6CF05DEF6CF01F0E92
:10D88C000A644BEF6CF04DEF6CF055EF6CF0FEEF63
:10D89C006BF0D89001360236033604360A060A506D
:10D8AC00D8A45BEF6CF05DEF6CF04FEF6CF00950AF
:10D8BC00D8B463EF6CF065EF6CF06DEF6CF0041E98
:10D8CC00031E021E016C000E02220322042201C060
:10D8DC0001F002C002F003C003F004C004F0120017
:10D8EC00000E0F6E000E0E6E000E0D6E000E0C6E06
:10D8FC0082EF6CF0074A082A07C0F6FF08C0F7FF52
:10D90C00F86A0800F550200AD8B48FEF6CF091EF4C
:10D91C006CF080EF6CF007C0F6FF08C0F7FFF86AF8
:10D92C000800F5CF09F0F70E09240A6E0B6AFF0EFA
:10D93C000B220B5009E1050E0A5CD8A0A8EF6CF085
:10D94C00AAEF6CF080EF6CF0B4EF6CF0000E0D6E83
:10D95C00010E0C6E074A082AEBEF6CF007C0F6FFBD
:10D96C0008C0F7FFF86A0800F550096E0A6A0A50F9
:10D97C00000AD8B4C4EF6CF0EBEF6CF009502B0A32
:10D98C00D8B4B0EF6CF0060AD8B4ACEF6CF0EBEF97
:10D99C006CF00EC001F00FC002F0000E046E0A0E07
:10D9AC00036E64EC65F007C0F6FF08C0F7FFF86A79
:10D9BC000800F550015E000E025A300E01240E6E66
:10D9CC00000E02200F6EB0EF6CF007C0F6FF08C01F
:10D9DC00F7FFF86A0800F5CF09F0D00E09240A6E9B
:10D9EC000B6AFF0E0B220B5009E10A0E0A5CD8A041
:10D9FC0002EF6DF004EF6DF0CFEF6CF00C500D10EA
:10DA0C00D8A40BEF6DF00DEF6DF01BEF6DF00EC0A9
:10DA1C0009F00FC00AF0091E0A1E094A0A2A09C099
:10DA2C0007F00AC008F01FEF6DF00EC007F00FC032
:10DA3C0008F012000001C8BF2EEF6DF0C85106E1CE
:10DA4C00C705D8B02CEF6DF02EEF6DF034EF6DF004
:10DA5C00000E336E010E326E38EF6DF0C7C032F02F
:10DA6C00C8C033F0C5C02EF0C6C02FF01EC034F0B5
:10DA7C001FC035F020C036F021C037F022C038F07E
:10DA8C0023C039F024C03AF025C03BF0000E3D6EA7
:10DA9C004F0E3C6E000E01014F6FB0EF6DF03C0667
:10DAAC00D8A03D0634500F0B3E6E090E3E6461EF5C
:10DABC006DF063EF6DF06BEF6DF0570E3E24306E32
:10DACC00316A000E312271EF6DF0300E3E24306E53
:10DADC00316A000E312230C03EF0000E3C24D96E6B
:10DAEC00010E3D20DA6E3EC0DFFF3206D8A03306B1
:10DAFC002E06D8A02F0634C026F035C027F036C02D
:10DB0C0028F037C029F038C02AF039C02BF03AC0C1
:10DB1C002CF03BC02DF0050E9DEF6DF0D8902D3202
:10DB2C002C322B322A322932283227322632E82E56
:10DB3C0094EF6DF026C034F027C035F028C036F0D5
:10DB4C0029C037F02AC038F02BC039F02CC03AF07D
:10DB5C002DC03BF03DBEBCEF6DF03D5009E1020E17
:10DB6C003C5CD8A0BCEF6DF0BEEF6DF0DAEF6DF061
:10DB7C003450351036103710381039103A103B101D
:10DB8C00D8A4CBEF6DF0CDEF6DF055EF6DF033BE4B
:10DB9C00DAEF6DF0335006E13204D8B0D8EF6DF007
:10DBAC00DAEF6DF055EF6DF01CC011F01DC012F0E6
:10DBBC00000E3C24136E010E3D20146E2EC015F089
:10DBCC002FC016F002EC68F012000F6E0F50D8B494
:10DBDC00F2EF6DF0F4EF6DF016EF6EF00ABEFBEFA6
:10DBEC006DF0F9EF6DF016EF6EF007C00BF008C09A
:10DBFC000CF009C00DF00AC00EF00B1E0C1E0D1E11
:10DC0C000E1E0B2A000E0C220D220E220BC011F040
:10DC1C000CC012F00DC013F00EC014F01EEF6EF01D
:10DC2C0007C011F008C012F009C013F00AC014F0BC
:10DC3C000750081009100A10D8A427EF6EF029EF2E
:10DC4C006EF033EF6EF0000E076E000E086E000ED5
:10DC5C00096E000E0A6EC4EF6EF0960E106E3DEF5C
:10DC6C006EF0102AD8901432133212321132000E88
:10DC7C0011140B6E000E12140C6E000E13140D6E9C
:10DC8C00FE0E14140E6E0B500C100D100E10D8A4AA
:10DC9C0052EF6EF054EF6EF037EF6EF062EF6EF005
:10DCAC00102A010E1126000E122213221422D890D3
:10DCBC001432133212321132000E11140B6E000E8C
:10DCCC0012140C6E000E13140D6EFF0E14140E6E47
:10DCDC000B500C100D100E10D8A477EF6EF079EFDE
:10DCEC006EF056EF6EF081EF6EF01006D890113694
:10DCFC0012361336143613BE86EF6EF088EF6EF0C4
:10DD0C0090EF6EF0020E10608EEF6EF090EF6EF0F2
:10DD1C007BEF6EF010B095EF6EF097EF6EF098EF22
:10DD2C006EF0139ED890103210C00BF00C6A0D6A76
:10DD3C000E6A0BC00EF00D6A0C6A0B6A0B501112B6
:10DD4C000C5012120D5013120E5014120F50D8B456
:10DD5C00B2EF6EF0B4EF6EF0BCEF6EF00ABEBBEF3C
:10DD6C006EF0B9EF6EF0BCEF6EF0148E11C007F0D0
:10DD7C0012C008F013C009F014C00AF0120019EC1C
:10DD8C0065F034EC65F0D00E056EFE0E066E7DEC83
:10DD9C0068F08BEC65F09F0E056EFF0E066E7DEC49
:10DDAC0068F0150E5F6E4B0E5E6EBE0EE82EFED743
:10DDBC005E2EFCD75F2EFAD700D055EC65F0C60E60
:10DDCC00056EFF0E066E7DEC68F0CB0E00019A6FAF
:10DDDC00000E9B6FFB0E9C6FFF0E9D6FF8C09EF0AC
:10DDEC00F9C09FF048EC67F0FE0E056EFE0E066E55
:10DDFC007DEC68F0CB0E056E000E066E7DEC68F0C7
:10DE0C00AB0E056EFF0E066E7DEC68F0E60E056E31
:10DE1C00FF0E066E7DEC68F0BCEC68F0990E056E9A
:10DE2C00FE0E066E7DEC68F0E90E056EFE0E066EBB
:10DE3C007DEC68F0CB0E00019A6F000E9B6FFB0E11
:10DE4C009C6FFF0E9D6FF8C09EF0F9C09FF048ECE0
:10DE5C0067F0040E056EFF0E066E7DEC68F0CB0EBF
:10DE6C00056E000E066E7DEC68F0AB0E056EFF0EB7
:10DE7C00066E7DEC68F0AFC001F0B0C002F0000E91
:10DE8C00046E050E036E64EC65F001C007F002C071
:10DE9C0008F0096A0A6A000EEBEC6DF007C015F089
:10DEAC0008C016F009C017F00AC018F0000E196E61
:10DEBC00000E1A6E800E1B6E450E1C6ECAEC70F0B6
:10DECC0015C0C1F016C0C2F017C0C3F018C0C4F022
:10DEDC00500E00019A6F010E9B6FEE0E9C6FFF0EA1
:10DEEC009D6FC1C09EF0C2C09FF0C3C0A0F0C4C063
:10DEFC00A1F048EC67F0D20E056EFF0E066E7DECBD
:10DF0C0068F0500E056E010E066E7DEC68F0AB0EDF
:10DF1C00056EFF0E066E7DEC68F0DC0E056EFF0ED6
:10DF2C00066E7DEC68F0DF0E056E000E066E7DEC65
:10DF3C0068F0AB0E056EFF0E066E7DEC68F0AB0E56
:10DF4C00056EFF0E066E7DEC68F0AB0E056EFF0ED7
:10DF5C00066E7DEC68F0150E5F6E4B0E5E6EBE0E9F
:10DF6C00E82EFED75E2EFCD75F2EFAD700D00CEF32
:10DF7C006FF000EF00F0B5C03EF0B6C03FF0B7C098
:10DF8C0040F0B8C041F02EC03EF02FC03FF030C082
:10DF9C0040F031C041F0810E326EFF0E336E3EC048
:10DFAC0034F03FC035F040C036F041C037F0180EA9
:10DFBC00E5EF6FF0D8903732363235323432E82E06
:10DFCC00E0EF6FF0345032243C6E000E33203D6E87
:10DFDC003DBEFAEF6FF03D5009E1170E3C5CD8A046
:10DFEC00FAEF6FF0FCEF6FF006EF70F02EC02EF032
:10DFFC002FC02FF030C030F031C031F0C9EF70F0CD
:10E00C003DBE0BEF70F00DEF70F07DEF70F03CC08B
:10E01C0032F0FF0E336EFF0E346E7F0E356E000E37
:10E02C00366E32661CEF70F024EF70F036343632F8
:10E03C00353234323332322E17EF70F033C038F0C1
:10E04C0034C039F035C03AF036C03BF038503E148D
:10E05C00326E39503F14336E3A504014346E3B508C
:10E06C004114356E3250331034103510D8A441EFB2
:10E07C0070F043EF70F045EF70F0FCEF6FF03EC0C6
:10E08C0032F03FC033F040C034F041C035F0200EC8
:10E09C0055EF70F0D8903532343233323232E82EBC
:10E0AC0050EF70F03250331034103510D8B461EF9B
:10E0BC0070F063EF70F06BEF70F038503E26395013
:10E0CC003F223A5040223B504122381C326E391CC0
:10E0DC00336E3A1C346E3B1C356E32503E16335048
:10E0EC003F163450401635504116C1EF70F03EC00B
:10E0FC0032F03FC033F040C034F041C035F0200E58
:10E10C008DEF70F0D8903532343233323232E82E13
:10E11C0088EF70F03250331034103510D8A499EFCA
:10E12C0070F09BEF70F0A5EF70F0000E3E6E000EDD
:10E13C003F6E000E406E000E416EC1EF70F0D89035
:10E14C003E34326E3F34336E4034346E4134356E6F
:10E15C003250331034103510D8B4B7EF70F0B9EF2B
:10E16C0070F0C1EF70F0000E3E6E000E3F6E800E30
:10E17C00406EBF0E416E3EC02EF03FC02FF040C02F
:10E18C0030F041C031F012001850800B256E185041
:10E19C0018242C6E17AED5EF70F0D7EF70F0D8EFC7
:10E1AC0070F02C802C50D8B4DEEF70F0E0EF70F0F3
:10E1BC00F5EF70F02C28D8A4E6EF70F0E8EF70F0D3
:10E1CC00F0EF70F0000E156E000E166E000E176E4E
:10E1DC00000E186E178E000E186EFDEF70F0000E0C
:10E1EC00156E000E166E000E176E000E186E1C507B
:10E1FC00800B251A1C501C242D6E1BAE08EF71F0E1
:10E20C000AEF71F00BEF71F02D802D50D8B411EF97
:10E21C0071F013EF71F028EF71F02D28D8A419EFDD
:10E22C0071F01BEF71F023EF71F0000E196E000E00
:10E23C001A6E000E1B6E000E1C6E1B8E000E1C6EDA
:10E24C0030EF71F0000E196E000E1A6E000E1B6E80
:10E25C00000E1C6E19501A101B101C10D8A439EF8C
:10E26C0071F03BEF71F053EF71F0000E156E000E74
:10E27C00166E000E176E000E186E800E17127F0EA3
:10E28C0018122550181215C015F016C016F017C02C
:10E29C0017F018C018F096EF72F02C50D8A459EF64
:10E2AC0071F05BEF71F065EF71F0000E156E000E02
:10E2BC00166E000E176E000E186E96EF72F02D5043
:10E2CC002CC01DF01E6A1D5E000E1E5A7F0E1D24F2
:10E2DC00266E000E1E20276E15C021F016C022F0EF
:10E2EC0017C023F018C024F0000E156E000E166E29
:10E2FC00000E176E000E186E000E286E000E296EA2
:10E30C00000E2A6E000E2B6E000E2D6EC6EF71F0F5
:10E31C002D50D8B494EF71F096EF71F0ADEF71F021
:10E32C00D8902136223623362436D8901536163618
:10E33C00173618362BAEA5EF71F0A7EF71F0A8EFDA
:10E34C0071F01580D890283629362A362B3619507C
:10E35C00215C1A5022581B5023581C502458D8A00A
:10E36C00BAEF71F0BCEF71F0C5EF71F02B8C195056
:10E37C00215E1A50225A1B50235A1C50245A2D2A03
:10E38C00190E2D64CCEF71F0CEEF71F08EEF71F0B1
:10E39C002150221023102410D8B4D7EF71F0D9EFEC
:10E3AC0071F0F1EF71F02880F1EF71F0D890153623
:10E3BC001636173618362BAEE6EF71F0E8EF71F023
:10E3CC00E9EF71F01580D890283629362A362B368D
:10E3DC002606D8A0270617AEF6EF71F0F8EF71F00D
:10E3EC00DCEF71F0000E2D6E2BAEFFEF71F001EF34
:10E3FC0072F025EF72F0FF0E28141D6EFF0E29141B
:10E40C001E6EFF0E2A141F6E7F0E2B14206E1D50D5
:10E41C001E101F102010D8B416EF72F018EF72F007
:10E42C001CEF72F0010E2D6E25EF72F015A021EF8E
:10E43C0072F023EF72F025EF72F018EF72F02D509E
:10E44C00D8B42BEF72F02DEF72F051EF72F0010E89
:10E45C001526000E16221722182218A038EF72F07B
:10E46C003AEF72F051EF72F015C01DF016C01EF0AD
:10E47C0017C01FF018C020F0203420321F321E327B
:10E48C001D321DC015F01EC016F01FC017F020C0A5
:10E49C0018F0264A272A27BE5CEF72F0275008E1B5
:10E4AC002628D8A05CEF72F05EEF72F069EF72F084
:10E4BC00000E276E2668000E156E000E166E000EEE
:10E4CC00176E000E186E27BE76EF72F0275006E11D
:10E4DC002604D8B074EF72F076EF72F084EF72F01D
:10E4EC00000E276E000E266E000E156E000E166EB8
:10E4FC00000E176E000E186E000E256E26C02CF046
:10E50C002CA08BEF72F08DEF72F090EF72F0178EF3
:10E51C0091EF72F0179ED8902C30186E47EF71F077
:10E52C0012004EC0D9FF4FC0DAFFDECFF6FFDDCFB1
:10E53C00F7FFF86A0800F550250AD8A4A8EF72F086
:10E54C00AAEF72F08BEF74F04EC0D9FF4FC0DAFF18
:10E55C00DE2A000EDD22000E0001C66F000EC56F14
:10E56C00C5C0C9F0C769C8694EC0D9FF4FC0DAFF32
:10E57C00DECFF6FFDDCFF7FFF86A0800F5502E0A64
:10E58C00D8A4CBEF72F0CDEF72F03CEF73F0000E2D
:10E59C00C86F000EC76F4EC0D9FF4FC0DAFFDE2A1E
:10E5AC00000EDD224EC0D9FF4FC0DAFFDECFF6FFE2
:10E5BC00DDCFF7FFF86A0800F5502A0AD8A4E9EF76
:10E5CC0072F0EBEF72F008EF73F04EC0D9FF4FC052
:10E5DC00DAFFDE2A000EDD2250C0D9FF51C0DAFF6F
:10E5EC00DFCF52F0020EDE26DFCF53F0000EDD221D
:10E5FC0052C0D9FF53C0DAFFDECFC7F0DDCFC8F071
:10E60C003CEF73F04EC0D9FF4FC0DAFFDECF07F0FE
:10E61C00DDCF08F076EC6CF007C0C7F008C0C8F08E
:10E62C001FEF73F04EC0D9FF4FC0DAFFDE2A000E89
:10E63C00DD224EC0D9FF4FC0DAFFDECFF6FFDDCFB3
:10E64C00F7FFF86A0800F5CF52F0D00E5224536E43
:10E65C00546AFF0E5422545009E10A0E535CD8A0A0
:10E66C003AEF73F03CEF73F018EF73F04EC0D9FF34
:10E67C004FC0DAFFDECF98F0DDCF99F098C0F6FFEF
:10E68C0099C0F7FFF86A0800F550780AD8A451EF42
:10E69C0073F053EF73F0B1EF73F050C0D9FF51C06A
:10E6AC00DAFFDFCF52F0020EDE26DFCF53F0000E82
:10E6BC00DD2252C0D9FF53C0DAFFDECF54F0DDCFDC
:10E6CC0055F054C08FF055C090F00001916B926BD7
:10E6DC00936B946B956B966B010E9825526E000E96
:10E6EC009921536E4EC0D9FF4FC0DAFF52C0DEFFE6
:10E6FC0053C0DDFF9AEF73F04CC01CF04DC01DF001
:10E70C008FC01EF090C01FF091C020F092C021F07D
:10E71C0093C022F094C023F095C024F096C025F04D
:10E72C0020EC6DF0A0EF74F098C0F6FF99C0F7FFE5
:10E73C00F86A0800F550526E536A5350000AD8B468
:10E74C00AAEF73F0B1EF73F05250780AD8B482EF9D
:10E75C0073F0B1EF73F04EC0D9FF4FC0DAFFDECFCC
:10E76C0098F0DDCF99F098C0F6FF99C0F7FFF86AE2
:10E77C000800F5CF97F0CFEF73F0984B992BE9EF9A
:10E78C0073F06C0E976FE9EF73F0000E976FE9EF73
:10E79C0073F000019751526E536A5350000AD8B46B
:10E7AC00DAEF73F0CBEF73F052504C0AD8B4C3EFDE
:10E7BC0073F02B0AD8B4C7EF73F00B0AD8B4C3EFBD
:10E7CC0073F0CBEF73F098C0F6FF99C0F7FFF86ABF
:10E7DC000800F550670AD8A4F6EF73F0F8EF73F061
:10E7EC0082EF74F02EEF74F050C0D9FF51C0DAFFF5
:10E7FC00DFCF52F0040EDE26DFCF53F0000EDD2209
:10E80C0052C0D9FF53C0DAFFDECF8FF0DECF90F0CD
:10E81C00DECF91F0DECF92F043EF74F050C0D9FF11
:10E82C0051C0DAFFDFCF52F0040EDE26DFCF53F0FB
:10E83C00000EDD2252C0D9FF53C0DAFFDECF8FF0BD
:10E84C00DECF90F0DECF91F0DECF92F043EF74F09C
:10E85C009751526E536A5350000AD8B438EF74F083
:10E86C0043EF74F052504C0AD8B414EF74F0200AF1
:10E87C00D8B4FAEF73F043EF74F0010E9825526E92
:10E88C00000E9921536E4EC0D9FF4FC0DAFF52C013
:10E89C00DEFF53C0DDFF6BEF74F04CC042F04DC097
:10E8AC0043F08FC044F090C045F091C046F092C048
:10E8BC0047F098C0F6FF99C0F7FFF86A0800F5CF4B
:10E8CC0048F016EC79F0A0EF74F098C0F6FF99C000
:10E8DC00F7FFF86A0800F550526E536A5350000A5D
:10E8EC00D8B47BEF74F082EF74F05250670AD8B44E
:10E8FC0053EF74F082EF74F04EC0D9FF4FC0DAFFC3
:10E90C00DE2A000EDD22A0EF74F04EC0D9FF4FC0FE
:10E91C00DAFFDECFF6FFDDCFF7FFF86A0800F5501F
:10E92C00016E026A4CC003F04DC004F018EC6AF0A2
:10E93C0082EF74F012000450800B0D6E045004240E
:10E94C00136E03AEACEF74F0AEEF74F0AFEF74F087
:10E95C0013801350D8B4B5EF74F0B7EF74F0CAEF5E
:10E96C0074F01328D8A4BDEF74F0BFEF74F0C7EFA8
:10E97C0074F0000E016E000E026E000E036E000E9F
:10E98C00046E038ED2EF74F0000E016E000E026E58
:10E99C00000E036E000E046E0850800B0D1A08500A
:10E9AC000824126E07AEDDEF74F0DFEF74F0E0EFC9
:10E9BC0074F012801250D8B4E6EF74F0E8EF74F0F3
:10E9CC00FBEF74F01228D8A4EEEF74F0F0EF74F0B3
:10E9DC00F8EF74F0000E056E000E066E000E076E5A
:10E9EC00000E086E078E03EF75F0000E056E000E1C
:10E9FC00066E000E076E000E086E1250D8B409EFAA
:10EA0C0075F00BEF75F013EF75F01350D8A411EFF0
:10EA1C0075F013EF75F01DEF75F0000E016E000E22
:10EA2C00026E000E036E000E046EB5EF76F007500A
:10EA3C000102F3CF18F0F4CF19F018500E6E0F6AD4
:10EA4C00106A116A1950146E156A166A176A065004
:10EA5C000202F3CF18F0F4CF19F018500E26000E66
:10EA6C000F221022112219501426000E15221622E4
:10EA7C00172205500302F3CF18F0F4CF19F01850F9
:10EA8C000E26000E0F221022112219501426000EF1
:10EA9C0015221622172210C011F00FC010F00EC054
:10EAAC000FF00E6A05500202F3CF18F0F4CF19F0F4
:10EABC0018500E2619500F22000E1022000E112293
:10EACC0006500102F3CF18F0F4CF19F018500E26AF
:10EADC0019500F22000E1022000E112210C011F03E
:10EAEC000FC010F00EC00FF00E6A05500102F3CFEC
:10EAFC0018F0F4CF19F018500E2619500F22000EF2
:10EB0C001022000E112207500202F3CF18F0F4CF9E
:10EB1C0019F01850142619501522000E1622000E4A
:10EB2C00172206500302F3CF18F0F4CF19F0185047
:10EB3C00142619501522000E1622000E172207500B
:10EB4C000302F3CF18F0F4CF19F01850096E1950D6
:10EB5C000A6E0B6A0C6A0BC00CF00AC00BF009C0F1
:10EB6C000AF0096A095014260A5015220B50162275
:10EB7C000C5017220EC009F00FC00AF010C00BF099
:10EB8C0011C00CF0190ED0EF75F0D8900C320B327E
:10EB9C000A320932E82ECBEF75F0095014260A50D0
:10EBAC0015220B5016220C50172210C011F00FC05A
:10EBBC0010F00EC00FF00E6A125013C009F00A6A62
:10EBCC000926000E0A22820E0924186EFF0E0A2056
:10EBDC00196E06EF76F0D8901436153616361736B1
:10EBEC0011AEFBEF75F0FDEF75F0FEEF75F01480D4
:10EBFC00D8900E360F36103611361806D8A01906D6
:10EC0C0016AE0BEF76F00DEF76F0F1EF75F0000E1F
:10EC1C00126E11AE14EF76F016EF76F03AEF76F046
:10EC2C00FF0E0E14096EFF0E0F140A6EFF0E101459
:10EC3C000B6E7F0E11140C6E09500A100B100C1079
:10EC4C00D8B42BEF76F02DEF76F031EF76F0010E95
:10EC5C00126E3AEF76F014A036EF76F038EF76F0CD
:10EC6C003AEF76F02DEF76F01250D8B440EF76F004
:10EC7C0042EF76F066EF76F0010E1426000E1522A8
:10EC8C001622172217A04DEF76F04FEF76F066EFB5
:10EC9C0076F014C009F015C00AF016C00BF017C0BE
:10ECAC000CF00C340C320B320A32093209C014F05D
:10ECBC000AC015F00BC016F00CC017F0184A192A30
:10ECCC0019BE71EF76F0195008E11828D8A071EF31
:10ECDC0076F073EF76F07DEF76F0000E146E000E8A
:10ECEC00156E800E166E7F0E176EABEF76F019BE9A
:10ECFC008AEF76F0195006E11804D8B088EF76F058
:10ED0C008AEF76F096EF76F0000E146E000E156E0C
:10ED1C00000E166E000E176E000E0D6EABEF76F039
:10ED2C0018C013F0FF0E1416FF0E15167F0E1616D4
:10ED3C00000E171613A0A5EF76F0A7EF76F0A8EF4C
:10ED4C0076F0168ED8901330176E0D50171214C023
:10ED5C0001F015C002F016C003F017C004F0120049
:10ED6C000450800B0D6E045004240F6E03AEC1EFE3
:10ED7C0076F0C3EF76F0C4EF76F00F800F50D8B476
:10ED8C00CAEF76F0CCEF76F0E1EF76F00F28D8A44E
:10ED9C00D2EF76F0D4EF76F0DCEF76F0000E016E69
:10EDAC00000E026E000E036E000E046E038E000E3B
:10EDBC00046EE9EF76F0000E016E000E026E000E8E
:10EDCC00036E000E046E0850800B0E6E0D500E1864
:10EDDC00D8B4F3EF76F0F5EF76F0F6EF76F00D8C25
:10EDEC00085008240E6E07AEFEEF76F000EF77F0B9
:10EDFC0001EF77F00E800E50D8B407EF77F009EFE3
:10EE0C0077F01EEF77F00E28D8A40FEF77F011EF04
:10EE1C0077F019EF77F0000E056E000E066E000EFF
:10EE2C00076E000E086E078E000E086E26EF77F048
:10EE3C00000E056E000E066E000E076E000E086EBC
:10EE4C000F500E5CD8B02DEF77F02FEF77F056EF18
:10EE5C0077F00DAC34EF77F036EF77F038EF77F0E2
:10EE6C00800E0D1A0FC010F00EC00FF010C00EF077
:10EE7C0001C010F005C001F010C005F002C010F088
:10EE8C0006C002F010C006F003C010F007C003F07B
:10EE9C0010C007F004C010F008C004F010C008F057
:10EEAC00000E106E0F500EC009F00A6A095E000EBB
:10EEBC000A5A0ABE6BEF77F00A5009E11A0E095C88
:10EECC00D8A06BEF77F06DEF77F0A4EF77F00150EF
:10EEDC00021003100410D8A476EF77F079EF77F0D6
:10EEEC00010E7AEF77F0000E106E000E016E000E20
:10EEFC00026E000E036E000E046E0EC00FF0ADEF2E
:10EF0C0077F010A08CEF77F08EEF77F094EF77F02E
:10EF1C00D89010300109106E96EF77F0D89010321F
:10EF2C0001A09BEF77F09DEF77F09EEF77F0108EBE
:10EF3C00043404320332023201320F2A0E500F5CB9
:10EF4C00D8A0ABEF77F0ADEF77F087EF77F00DBC93
:10EF5C00B2EF77F0B4EF77F0F4EF77F00F50D8A46E
:10EF6C00BAEF77F0BCEF77F0C6EF77F0000E016EDA
:10EF7C00000E026E000E036E000E046E15EF79F09B
:10EF8C000550012606500222075003220850042285
:10EF9C0004A0D3EF77F0D5EF77F081EF78F010A0E5
:10EFAC00DAEF77F0DCEF77F0E2EF77F0D890103013
:10EFBC000109106EE4EF77F0D890103201A0E9EF60
:10EFCC0077F0EBEF77F0ECEF77F0108E043404323F
:10EFDC000332023201320F2A81EF78F00550015CC6
:10EFEC0006500258075003580450800A096E085006
:10EFFC00800A0958D8B005EF78F007EF78F032EFB7
:10F00C0078F00150055C096E025006580A6E0350E8
:10F01C0007580B6E045008580C6EFF0E0924016E35
:10F02C00FF0E0A20026EFF0E0B20036EFF0E0C204B
:10F03C00046E800E0D1A106C1050D8A428EF78F0C6
:10F04C002AEF78F03AEF78F0010E0126000E02223A
:10F05C00032204223AEF78F00550015E0650025A62
:10F06C000750035A0850045A0150021003100410A0
:10F07C00D8A443EF78F045EF78F07AEF78F01050A1
:10F08C00D8A44BEF78F04DEF78F07AEF78F0000ED3
:10F09C00016E000E026E000E036E000E046E15EF74
:10F0AC0079F0D890013602360336043610AE61EF93
:10F0BC0078F063EF78F064EF78F0018010A069EFDE
:10F0CC0078F06BEF78F06FEF78F0D880103671EF46
:10F0DC0078F0D89010360F50D8B477EF78F079EFED
:10F0EC0078F07AEF78F00F0603AE7FEF78F081EFCF
:10F0FC0078F057EF78F0000E0E6E10AE88EF78F0C7
:10F10C008AEF78F0A2EF78F010C009F07F0E0916A4
:10F11C00D8B493EF78F095EF78F099EF78F0010E82
:10F12C000E6EA2EF78F001A09EEF78F0A0EF78F0D1
:10F13C00A2EF78F095EF78F00E50D8B4A8EF78F0F5
:10F14C00AAEF78F0D5EF78F0010E0126000E02221E
:10F15C000322042204A0B5EF78F0B7EF78F0D5EFD6
:10F16C0078F001C009F002C00AF003C00BF004C033
:10F17C000CF00C340C320B320A32093209C001F09B
:10F18C000AC002F00BC003F00CC004F00F28D8B476
:10F19C00D2EF78F0D4EF78F0D5EF78F00F2A0F2873
:10F1AC00D8B4DBEF78F0DDEF78F0E5EF78F00F50C6
:10F1BC00D8A4E3EF78F0E5EF78F0F7EF78F0000EF5
:10F1CC00016E000E026E000E036E000E046E0F50E8
:10F1DC00D8A4F3EF78F0F5EF78F0F7EF78F0000EB5
:10F1EC000D6E0FA0FCEF78F0FEEF78F001EF79F0E8
:10F1FC00038E02EF79F0039ED8900F30046E0DAEA3
:10F20C000AEF79F00CEF79F00DEF79F0048E01C074
:10F21C0001F002C002F003C003F004C004F01200BD
:10F22C00000E0001806F44C087F045C088F046C0D6
:10F23C0089F047C08AF08ABF28EF79F026EF79F081
:10F24C003CEF79F0010E806F87C001F088C002F0AE
:10F25C0089C003F08AC004F0CDEC65F001C087F0E2
:10F26C0002C088F003C089F004C08AF0000E0001CF
:10F27C00866F000E856FC5C070F0C6C071F08051EE
:10F28C00D8B44BEF79F04DEF79F061EF79F0805114
:10F29C00D8A453EF79F055EF79F05BEF79F0000ECD
:10F2AC00616F2B0E606F5FEF79F0000E616F2D0EAA
:10F2BC00606F60C080F087C001F088C002F089C028
:10F2CC0003F08AC004F0F2EC6AF001040210D8A436
:10F2DC0072EF79F074EF79F0A7EF79F000018051BB
:10F2EC00D8B47BEF79F07DEF79F086EF79F080C0C0
:10F2FC0000F17007D8A07107000E866F010E856FA4
:10F30C00000E8525016E010E8621026EF30E036E32
:10F31C00FF0E046E47EC66F00001FD0E7027FF0E29
:10F32C00712342C011F043C012F0000E136E010E97
:10F33C00146E70C015F071C016F002EC68F03DEF61
:10F34C007FF087C001F088C002F089C003F08AC04A
:10F35C0004F0F2EC6AF001500210D8A4B8EF79F086
:10F36C00BAEF79F0DAEF79F000018051D8B4C1EF3F
:10F37C0079F0C3EF79F0CCEF79F080C000F1700731
:10F38C00D8A07107000E866F010E856F000E8525C3
:10F39C00016E010E8621026EF70E036EFF0E046ED7
:10F3AC0047EC66F092EF79F0000E00018B6F000EC7
:10F3BC008C6F800E8D6F3F0E8E6F000E846F000E63
:10F3CC00836F87C001F088C002F089C003F08AC047
:10F3DC0004F0000E056E000E066E000E076E000E99
:10F3EC00086E09EC69F0D8B0FEEF79F000EF7AF016
:10F3FC00DFEF7AF00DEF7AF074C08BF075C08CF003
:10F40C0076C08DF077C08EF00001834B842B8BC0BF
:10F41C0001F08CC002F08DC003F08EC004F0000E21
:10F42C00056E000E066E200E076E410E086EA1ECE6
:10F43C0074F001C074F002C075F003C076F004C023
:10F44C0077F000017451875D016E75518859026E19
:10F45C0076518959036E77518A59046ECFEC67F057
:10F46C0004BE44EF7AF004500310021009E1020EBE
:10F47C00015CD8A044EF7AF046EF7AF002EF7AF014
:10F48C0074C01AF075C01BF076C01CF077C01DF06C
:10F49C0087C01EF088C01FF089C020F08AC021F000
:10F4AC0071EC6BF0D8A05DEF7AF05FEF7AF002EFC1
:10F4BC007AF000018B51875D016E8C518859026E78
:10F4CC008D518959036E8E518A59046ECFEC67F0B9
:10F4DC0004BE7EEF7AF004500310021007E1020E16
:10F4EC00015CD8B07CEF7AF07EEF7AF0C6EF7AF060
:10F4FC008BC087F08CC088F08DC089F08EC08AF0EC
:10F50C00DFEF7AF08BC015F08CC016F08DC017F0C1
:10F51C008EC018F0000E196E000E1A6E200E1B6EA7
:10F52C00410E1C6ECAEC70F015C08BF016C08CF03E
:10F53C0017C08DF018C08EF000018307D8A0840787
:10F54C008B51875D016E8C518859026E8D51895992
:10F55C00036E8E518A59046ECFEC67F004BEC4EF73
:10F56C007AF004500310021007E1020E015CD8B0CF
:10F57C00C2EF7AF0C4EF7AF0C6EF7AF07EEF7AF051
:10F58C0087C01AF088C01BF089C01CF08AC01DF01F
:10F59C008BC01EF08CC01FF08DC020F08EC021F0EF
:10F5AC0071EC6BF0D8A0DDEF7AF0DFEF7AF088EF3A
:10F5BC007AF048C073F073C072F0670E00017319D3
:10F5CC00D8A4EBEF7AF0EDEF7AF013EF7BF0C751A4
:10F5DC00C811D8A4F4EF7AF0F6EF7AF0FAEF7AF0DB
:10F5EC00000EC86F010EC76FC8BF07EF7BF0C85184
:10F5FC0006E1C705D8B005EF7BF007EF7BF00DEF08
:10F60C007BF0000E6F6F060E6E6F1CEF7BF0C7C0A9
:10F61C006EF0C8C06FF01CEF7BF0C8BF18EF7BF02A
:10F62C001AEF7BF007EF7BF00DEF7BF0670E731991
:10F63C00D8A423EF7BF025EF7BF04EEF7BF084AF6B
:10F64C0033EF7BF0FC0E835DFF0E8459D8A031EFB5
:10F65C007BF033EF7BF04CEF7BF0FF0E6E25496EA9
:10F66C00FF0E6F214A6E8351495C4A50800A4B6EE3
:10F67C008451800A4B58D8A046EF7BF048EF7BF0C2
:10F68C004CEF7BF0660E726F4EEF7BF0650E726F77
:10F69C006EC06AF06FC06BF0670E7319D8A459EF87
:10F6AC007BF05BEF7BF06BEF7BF0660E7219D8A4EE
:10F6BC0062EF7BF064EF7BF06DEF7BF084BF6BEF60
:10F6CC007BF069EF7BF06DEF7BF06A4B6B2B660E7A
:10F6DC007219D8A474EF7BF076EF7BF096EF7BF089
:10F6EC0084BF7DEF7BF07BEF7BF089EF7BF0000E2E
:10F6FC008B6F000E8C6F800E8D6F3F0E8E6F000E19
:10F70C00846F000E836F670E7319D8B490EF7BF083
:10F71C0092EF7BF096EF7BF083516A2784516B2339
:10F72C00000E826F000E816F87C078F088C079F070
:10F73C0089C07AF08AC07BF08BC074F08CC075F0F5
:10F74C008DC076F08EC077F027EF7CF078C015F086
:10F75C0079C016F07AC017F07BC018F08BC019F086
:10F76C008CC01AF08DC01BF08EC01CF0CAEC70F06F
:10F77C0015C02EF016C02FF017C030F018C031F0A5
:10F78C00C1EC6FF02EC07CF02FC07DF030C07EF04D
:10F79C0031C07FF07CC001F07DC002F07EC003F070
:10F7AC007FC004F0F3EC6BF001C06CF002C06DF0A4
:10F7BC0078C01AF079C01BF07AC01CF07BC01DF029
:10F7CC007CC005F07DC006F07EC007F07FC008F05D
:10F7DC008BC001F08CC002F08DC003F08EC004F021
:10F7EC00A1EC74F001C01EF002C01FF003C020F0A9
:10F7FC0004C021F0ADEC66F01AC078F01BC079F0B3
:10F80C001CC07AF01DC07BF08BC015F08CC016F0BC
:10F81C008DC017F08EC018F0000E196E000E1A6E07
:10F82C00200E1B6E410E1C6ECAEC70F015C08BF0D6
:10F83C0016C08CF017C08DF018C08EF00001814BF3
:10F84C00822B6A51815D8251800A496E6B51800A0C
:10F85C004958D8A034EF7CF036EF7CF0ACEF7BF05D
:10F86C008BC001F08CC002F08DC003F08EC004F090
:10F87C00000E056E000E066EA00E076E400E086E92
:10F88C00A1EC74F001C07CF002C07DF003C07EF0EE
:10F89C0004C07FF078C01AF079C01BF07AC01CF05D
:10F8AC007BC01DF07CC01EF07DC01FF07EC020F020
:10F8BC007FC021F071EC6BF0D8B067EF7CF069EF92
:10F8CC007CF074EF7CF0000E00017C6F000E7D6FFD
:10F8DC00000E7E6F000E7F6F9DEF7CF078C001F004
:10F8EC0079C002F07AC003F07BC004F07CC005F054
:10F8FC007DC006F07EC007F07FC008F009EC69F00F
:10F90C00D8A08BEF7CF08DEF7CF09DEF7CF00001AC
:10F91C006CB193EF7CF095EF7CF09DEF7CF0000EDA
:10F92C007C6F000E7D6F000E7E6F000E7F6F87C0A8
:10F93C0001F088C002F089C003F08AC004F07CC0DA
:10F94C0005F07DC006F07EC007F07FC008F0B6EC75
:10F95C0076F001C078F002C079F003C07AF004C0F0
:10F96C007BF078C01AF079C01BF07AC01CF07BC019
:10F97C001DF0000E056E000E066E200E076E410E79
:10F98C00086E74C001F075C002F076C003F077C049
:10F99C0004F0A1EC74F001C01EF002C01FF003C013
:10F9AC0020F004C021F071EC6BF0D8A0E0EF7CF0FB
:10F9BC00E2EF7CF00BEF7DF00001834B842B74C0E5
:10F9CC0001F075C002F076C003F077C004F0000EB1
:10F9DC00056E000E066E200E076E410E086EA1EC31
:10F9EC0074F001C074F002C075F003C076F004C06E
:10F9FC0077F0660E00017219D8A407EF7DF009EFBD
:10FA0C007DF00BEF7DF06A4B6B2B74C08BF075C0E7
:10FA1C008CF076C08DF077C08EF0650E00017219F7
:10FA2C00D8B41BEF7DF01DEF7DF023EF7DF083C08C
:10FA3C0068F084C069F027EF7DF0000E696F000E4E
:10FA4C00686F000E666F000E656F000E646F000E1F
:10FA5C00826F000E816F35EF7EF078C015F079C0A3
:10FA6C0016F07AC017F07BC018F08BC019F08CC060
:10FA7C001AF08DC01BF08EC01CF0CAEC70F015C0D3
:10FA8C002EF016C02FF017C030F018C031F0C1ECBA
:10FA9C006FF02EC07CF02FC07DF030C07EF031C0F6
:10FAAC007FF07CC001F07DC002F07EC003F07FC00F
:10FABC0004F0F3EC6BF002BE6FEF7DF0025007E147
:10FACC000A0E015CD8B06DEF7DF06FEF7DF07FEF2B
:10FADC007DF07CC001F07DC002F07EC003F07FC0E1
:10FAEC0004F0F3EC6BF001C06CF002C06DF084EF2D
:10FAFC007DF0000E00016D6F090E6C6F00016C51F2
:10FB0C006D11D8A48CEF7DF08EEF7DF0A2EF7DF01F
:10FB1C00670E7319D8A495EF7DF097EF7DF0A2EFE7
:10FB2C007DF069BF9EEF7DF09CEF7DF0A2EF7DF044
:10FB3C00644B652BE9EF7DF06651D8A4A8EF7DF0FE
:10FB4C00AAEF7DF0D2EF7DF069BFB1EF7DF0AFEFA2
:10FB5C007DF0D2EF7DF0000E8525D96E010E862149
:10FB6C00DA6E2E0EDF6E854B862B7007D8A07107D0
:10FB7C00010E666FD2EF7DF0000E8525D96E010E59
:10FB8C008621DA6E300EDF6E854B862B7007D8A07F
:10FB9C0071076407D8A0650764516511D8A4D9EF23
:10FBAC007DF0DBEF7DF0C2EF7DF0000E8525D96E88
:10FBBC00010E8621DA6E6C51300FDF6E854B862B71
:10FBCC007007D8A0710778C01AF079C01BF07AC002
:10FBDC001CF07BC01DF07CC005F07DC006F07EC023
:10FBEC0007F07FC008F08BC001F08CC002F08DC014
:10FBFC0003F08EC004F0A1EC74F001C01EF002C042
:10FC0C001FF003C020F004C021F0ADEC66F01AC068
:10FC1C0078F01BC079F01CC07AF01DC07BF08BC053
:10FC2C0015F08CC016F08DC017F08EC018F0000EB9
:10FC3C00196E000E1A6E200E1B6E410E1C6ECAEC55
:10FC4C0070F015C08BF016C08CF017C08DF018C07A
:10FC5C008EF000016807D8A06907814B822B6A518E
:10FC6C00815D8251800A496E6B51800A4958D8B027
:10FC7C0042EF7EF044EF7EF052EF7EF086BF50EF05
:10FC8C007EF0865109E14B0E855DD8A050EF7EF0D9
:10FC9C0052EF7EF033EF7DF0000E826F4F0E816FCE
:10FCAC00000E8125D96E010E8221DA6E000EDF6EF8
:10FCBC00650E7219D8A465EF7EF067EF7EF0EBEF5E
:10FCCC007EF0000E676F84BF70EF7EF06EEF7EF0FB
:10FCDC0076EF7EF0010E676F836D841FD8B0842B96
:10FCEC00000E6F6F020E6E6FA7EF7EF08107D8A02B
:10FCFC008207000E8125D96E010E8221DA6E83C037
:10FD0C0001F084C002F0000E046E0A0E036E5EEC6D
:10FD1C0069F00150300FDF6E83C001F084C002F037
:10FD2C00000E046E0A0E036EB6EC69F001C083F08F
:10FD3C0002C084F000016E07D8A06F077007D8A02E
:10FD4C00710783518411D8A4AEEF7EF0B0EF7EF032
:10FD5C007CEF7EF06FBFBDEF7EF06F5106E16E055C
:10FD6C00D8B0BBEF7EF0BDEF7EF07CEF7EF081076C
:10FD7C00D8A082076751D8A4C6EF7EF0C8EF7EF0FA
:10FD8C00CEEF7EF0000E636F2B0E626FD2EF7EF023
:10FD9C00000E636F2D0E626F000E8125D96E010E61
:10FDAC008221DA6E62C0DFFF7007D8A0710781076D
:10FDBC00D8A08207000E8125D96E010E8221DA6E41
:10FDCC00650EDF6E7007D8A07107000E496E010E2C
:10FDDC004A6E8551495E86514A5A81514924016EB9
:10FDEC0082514A20026E000E036E010E046E85C015
:10FDFC0005F086C006F0F8EC66F000018551815DD7
:10FE0C00856F86518259866F8051D8A410EF7FF090
:10FE1C0013EF7FF0010E14EF7FF0000E816F826BF9
:10FE2C008051D8B41CEF7FF01EEF7FF029EF7FF0EC
:10FE3C008507D8A08607000E8525D96E010E862170
:10FE4C00DA6E80C0DFFF8151705F8251715B42C0FE
:10FE5C0011F043C012F0000E8525136E010E8621A1
:10FE6C00146E70C015F071C016F002EC68F0120040
:10FE7C00006265666F726520636865636B696E67A7
:10FE8C0020627573792073746174650A002F2F2FAB
:10FE9C002F2F2F2F2F2F2F2F2F20202020202020CF
:10FEAC004348414E4E454C31006166746572206387
:10FEBC006865636B696E6720627573792073746112
:10FECC0074650A00496E697469616C697A696E6758
:10FEDC0020746865204144432E2E2E0A00202020D9
:10FEEC00202020202F2F2F2F2F2F2F2F2F2F2F2F52
:10FEFC000A004649525354204469676974616C2066
:10FF0C00646174613A20005374617274206F6620CE
:10FF1C007265736574200A006166746572203173B2
:10FF2C0074206E61636B0A006166746572203273B3
:10FF3C0074206E61636B0A006166746572203373A2
:10FF4C0074206E61636B0A006265666F7265207463
:10FF5C007269676765720A00456E64206F6620726D
:10FF6C0065736574200A0061667465722072656140
:10FF7C0064696E670A0061667465722074726967E1
:10FF8C006765720A00696E73696465207768696CCD
:10FF9C00650A00526573657420444F4E4521200A52
:10FFAC00006265666F72652073746F700A0061661B
:10FFBC007465722073746F700A004144432072653B
:10FFCC00616479210A00534320646174613A200012
:10FFDC00566F6C746167653A200048454C4C4F2154
:10FFEC000A00252E346700696E66006E616E00256E
:03FFFC007800008A
:020000040020DA
:08000000FFFFFFFFFFFFFFFF00
:020000040030CA
:0E000000FF381F3CFFBF85FF0FC00FE00F4011
:00000001FF
